:100000000C942A000C9488040C9447000C9447002C
:100010000C9447000C9447000C9447000C94470044
:100020000C9447000C9447000C9447000C94470034
:100030000C9447000C9447000C9447000C94470024
:100040000C9447000C9447000C9447000C94470014
:100050000C94470011241FBECFE5D8E0DEBFCDBF12
:1000600010E0A0E6B0E0ECE9FAE002C005900D92E5
:10007000A23BB107D9F720E0A2EBB0E001C01D928E
:10008000A83BB207E1F70E94B8030C944C050C940E
:100090000000982F9695969596958770913021F14E
:1000A00030F09230F1F1933009F458C00895613086
:1000B00069F44BB321E030E0B90102C0660F771F4D
:1000C0008A95E2F7CB01842B8BBB08954BB321E0DB
:1000D00030E0B90102C0660F771F8A95E2F7CB01C5
:1000E000809584238BBB0895613069F448B321E087
:1000F00030E0B90102C0660F771F8A95E2F7CB01A5
:10010000842B88BB089548B321E030E0B90102C0D8
:10011000660F771F8A95E2F7CB018095842388BB11
:100120000895613069F445B321E030E0B90102C0BF
:10013000660F771F8A95E2F7CB01842B85BB089564
:1001400045B321E030E0B90102C0660F771F8A9500
:10015000E2F7CB018095842385BB0895613069F473
:1001600042B321E030E0B90102C0660F771F8A95E3
:10017000E2F7CB01842B82BB089542B321E030E04B
:10018000B90102C0660F771F8A95E2F7CB0180950F
:10019000842382BB0895982F969596959695482F1F
:1001A0004770913081F028F09230B9F09330F9F037
:1001B00028C099B3892F90E002C0959587954A95FC
:1001C000E2F78170089526B330E0C90102C0959529
:1001D00087954A95E2F78170089523B330E0C9010D
:1001E00002C0959587954A95E2F78170089520B3EE
:1001F00030E0C90102C0959587954A95E2F7817074
:10020000089580E0089580E0A0C0982F9695969577
:100210009695282F2770913061F138F0923009F4CB
:100220004CC0933009F46DC08FC0E82FF0E0EE0FA2
:10023000FF1FEE59FF4F9081913069F49AB341E06E
:1002400050E0BA0102C0660F771F2A95E2F79B01C2
:10025000292B2ABB79C09AB341E050E0BA0102C011
:10026000660F771F2A95E2F79B01209529232ABB69
:100270006BC0E82FF0E0EE0FFF1FEE59FF4F9081AB
:10028000913069F497B341E050E0BA0102C0660FC3
:10029000771F2A95E2F79B01292B27BB55C097B3FF
:1002A00041E050E0BA0102C0660F771F2A95E2F7DD
:1002B0009B012095292327BB47C0E82FF0E0EE0FD4
:1002C000FF1FEE59FF4F9081913069F494B341E0E4
:1002D00050E0BA0102C0660F771F2A95E2F79B0132
:1002E000292B24BB31C094B341E050E0BA0102C0D5
:1002F000660F771F2A95E2F79B012095292324BBDF
:1003000023C0E82FF0E0EE0FFF1FEE59FF4F908162
:10031000913069F491B341E050E0BA0102C0660F38
:10032000771F2A95E2F79B01292B21BB0DC091B3C2
:1003300041E050E0BA0102C0660F771F2A95E2F74C
:100340009B012095292321BB8F5F803208F45DCF6C
:10035000089561E08AE10E94490061E08BE10E941A
:10036000490061E082E10E94490061E083E10E946E
:1003700049000895CF9361E087E10E94490060E061
:1003800084E10E94490061E085E10E94490061E04A
:1003900086E10E9449008AE10E94CB00811107C0DA
:1003A0008AE10E94CB008823D9F3C7E301C0CFEFD5
:1003B0008BE10E94CB00811106C08BE10E94CB0033
:1003C0008823D9F3C8E382E10E94CB00811106C0E3
:1003D00082E10E94CB008823D9F3C9E383E10E9424
:1003E000CB00811106C083E10E94CB008823D9F3A2
:1003F000CFE28C2FCF910895CF9361E084E10E94EA
:10040000490060E085E10E94490061E086E10E94C8
:10041000490061E087E10E9449008AE10E94CB0027
:10042000811107C08AE10E94CB008823D9F3C4E37D
:1004300001C0CFEF8BE10E94CB00811106C08BE1A0
:100440000E94CB008823D9F3C5E382E10E94CB0050
:10045000811106C082E10E94CB008823D9F3C6E354
:1004600083E10E94CB00811106C083E10E94CB0092
:100470008823D9F3CAE28C2FCF910895CF9361E0FE
:1004800084E10E94490061E085E10E94490060E04A
:1004900086E10E94490061E087E10E9449008AE10B
:1004A0000E94CB00811107C08AE10E94CB00882303
:1004B000D9F3C1E301C0CFEF8BE10E94CB008111E2
:1004C00006C08BE10E94CB008823D9F3C2E382E10E
:1004D0000E94CB00811106C082E10E94CB008823DC
:1004E000D9F3C3E383E10E94CB00811106C083E10D
:1004F0000E94CB008823D9F3CDE28C2FCF910895B1
:10050000CF9361E084E10E94490061E085E10E94AF
:10051000490061E086E10E94490060E087E10E94B5
:1005200049008AE10E94CB00811109C00E94B403F6
:100530008AE10E94CB008823D9F3C0E001C0CFEF4D
:100540008BE10E94CB00811106C08BE10E94CB00A1
:100550008823D9F3C0E382E10E94CB00811106C059
:1005600082E10E94CB008823D9F3CDE383E10E948E
:10057000CB00811106C083E10E94CB008823D9F310
:10058000CBE28C2FCF9108950E94BA018F3F51F496
:100590000E94FC018F3F31F40E943E028F3F11F414
:1005A0000E9480020895CF93C82F8BB38F709C2F29
:1005B000907F892B8BBB60E089E00E94490060E05E
:1005C0008BE00E9449008FE891E00197F1F700C0AD
:1005D000000061E08BE00E9449008FE19EE40197FA
:1005E000F1F700C000002BB330E1C39FC00111241C
:1005F000922F9F70892B8BBB60E089E00E9449009D
:1006000060E08BE00E9449008FE891E00197F1F7EC
:1006100000C0000061E08BE00E9449008FE39FE191
:100620000197F1F700C00000CF9108952FEF89EFF7
:1006300090E0215080409040E1F700C0000060E071
:100640008AE00E94490083E30E94D30287E592E09A
:100650000197F1F700C0000082E30E94D30288E214
:100660000E94D30286E00E94D3028CE00E94D30253
:1006700081E00E94D3028FE39FE10197F1F700C070
:1006800000000895CF93C82F8BB38F709C2F907F5D
:10069000892B8BBB61E089E00E94490060E08BE020
:1006A0000E9449008FE891E00197F1F700C0000037
:1006B00061E08BE00E9449008FE19EE40197F1F731
:1006C00000C000002BB330E1C39FC0011124922F62
:1006D0009F70892B8BBB61E089E00E94490060E03C
:1006E0008BE00E9449008FE891E00197F1F700C08C
:1006F000000061E08BE00E9449008FE39FE10197D9
:10070000F1F700C00000CF9108950F931F93CF938E
:100710008C01C0E003C00E944203CF5FF801EC0FE0
:10072000F11D80818111F7CFCF911F910F91089515
:10073000CF93DF93EC01613019F0623051F011C0BA
:10074000842F8F7080680E94D302CE010E9485039F
:1007500008C0842F8F70806C0E94D302CE010E944B
:100760008503DF91CF91089581E00E94D30208951F
:10077000CF93DF93CDB7DEB766970FB6F894DEBFA1
:100780000FBECDBF0E9403010E9416030E94A90163
:100790000E94DE048BB780648BBF85B7826085BF03
:1007A00085B78E7F85BF1D8A81E08E8BCE014596F1
:1007B0000E94BA0488B38F7E88BB78941AEA2FEF20
:1007C00087E893E1215080409040E1F700C00000AD
:1007D0000E94B4035F991CB1812F0E94D904082F95
:1007E00010E04AE0BE016F5F7F4FC8010E940F0515
:1007F0004AE0BE01655F7F4F80916000909161008B
:100800000E940F0540E061E082EA90E00E949803B8
:1008100049E061E0CE010B960E94980340E062E05F
:100820008BEA90E00E94980345E062E0CE010196D9
:100830000E94980380916000909161008017910759
:1008400054F461E080E00E94490061E081E00E9490
:10085000490017E5B4CF60E080E00E94490060E005
:1008600081E00E9449001AEAAACF20E030E006C0E9
:10087000FC01E20FF31F10822F5F3F4F2430310540
:10088000BCF30895CF93DF930E94B4038FEF80935E
:10089000B4008BB78F7B8BBF0E94C402C82F91E03E
:1008A0008F3F09F490E081E0CD3309F480E08923A3
:1008B00099F0E091B200F091B300EB54FF4FC08388
:1008C0008C2F0E9442038091B2009091B300019658
:1008D0009093B3008093B200CD33F1F685EB90E0B6
:1008E0000E94F104EC010E94B4030E943E02809336
:1008F000B4001092B3001092B20085EB90E00E9419
:1009000035048BB780648BBFCE01DF91CF91089502
:100910001F920F920FB60F9211242F933F934F9374
:100920005F936F937F938F939F93AF93BF93EF9357
:10093000FF930E943E028093B4008091B400813303
:1009400041F40E94B4030E9442049093610080939A
:100950006000FF91EF91BF91AF919F918F917F9137
:100960006F915F914F913F912F910F900FBE0F901C
:100970001F901895FC018081882319F0813081F047
:10098000089580E18DB98DB180648DB987B3806B96
:1009900087BB87B38F7B87BB88B3806188BB089593
:1009A00087B3806487BB87B38F7487BB80E48DB9BE
:1009B00008958FB9779BFECF8FB108958AB180617A
:1009C0008AB98AB188608AB980B5806880BD80B5EF
:1009D000826080BD80B5846080BD87E689B910BC27
:1009E0000895FC0188279927E89421912032E9F3A2
:1009F000293010F02E30C8F32B3241F02D3239F46B
:100A0000689404C00E941A05820F911D2191205301
:100A10002A30C0F31EF4909581959F4F0895BB270F
:100A20004A3031F4992322F4BDE2909581959F4F8D
:100A30000C9423057AE0979F902D879F802D910D30
:100A400011240895BB27FB015527AA27880F991F5A
:100A5000AA1FA41710F0A41B83955051B9F7A05DED
:100A6000AA3308F0A95DA193009779F7B111B1936A
:100A70001192CB010C943C05DC01FC01672F7191B4
:100A80007723E1F7329704C07C916D937083629174
:0C0A9000AE17BF07C8F30895F894FFCF1D
:100A9C0050000101010101010101010101010101EC
:100AAC00010101010101010101010101010101012A
:100ABC000101010100000000000001010101010120
:100ACC00010101010101000000000101010101010E
:100ADC000101315F73657452313D00545F52313DF9
:020AEC00000008
:00000001FF
